:100000000C9418040C9449040C9449040C9449046D
:100010000C9449040C9449040C9449040C9449042C
:100020000C9449040C9449040C9449040C9449041C
:100030000C9449040C9449040C9449040C9449040C
:100040000C9449040C9449040C9449040C944904FC
:100050000C9449040C9449040C9449040C94310800
:100060000C9449040C94720B0C943E0C0C944904AF
:100070000C9449040C9449040C9449040C944904CC
:100080000C9449040C9449040C9449040C944904BC
:100090000C94A50B0C947D0C0C9449040C9449040D
:1000A0000C9449040C9449040C9449040C9449049C
:1000B0000C9449040C9449040C9449040C9449048C
:1000C0000C9449040C9449040C9449040C94D80BE6
:1000D0000C94BC0C0C9449040C940B0C0C94FB0C6D
:1000E0000C9449047009730966096A09AA09770919
:1000F0007B098109850989098F0993099709AA094B
:100100009D09A109A5090C9459200C942B220C944B
:100110006A090C9429100C9442260C940A210C9420
:100120004D250C9416210C94192A0C94A5090C94B5
:1001300070090C94A1090C9481090C949D090C94EC
:10014000BF0A0C94A1220C946E060C9422210C94EC
:100150000D220C9489090C9423260C9432210C94C2
:1001600073090C949B100C9440100C9466090C9429
:100170000D2C0C9485090C94652A0C94160B0C9488
:10018000BE0A0C94A7180C9477090C9493090C944C
:1001900003210C94922B0C9402210C9400230C94B8
:1001A00091100C9441110C9455260C9401230C943D
:1001B000CF0A0C9433210C9478210C9456100C9493
:1001C0007B090C94BC210C94FF260C94C20D0C945A
:1001D0002E260C9497090C94C5260C943D270C945C
:1001E000EB0A0C948F090C940B0B0C94400A0C94A2
:1001F0008B260C9472100C94AA090000090A0208BC
:100200000B0C0D07060304010000000000000000B5
:1002100000000000000000000000000000000000DE
:1002200000000000000011100F000000000000009E
:1002300000000000000000000000000000000000BE
:1002400001021020200808102040102040800201E8
:1002500002010804020101020408102040808040CD
:1002600020100804020180040201804020100804CC
:10027000020108040201010204081020408001026A
:100280000408102040800505050507050808080832
:10029000020202020A0A080804040404010101011E
:1002A0000101010103030303030303030407070719
:1002B0000C0C0C0C0C0C0C0C0202020206060606BE
:1002C000060606060B0B0B0B0B0B0B0B000020009E
:1002D0002300260029002C002F003200000100001E
:1002E00003010601090100002200250028002B005F
:1002F0002E003100340002010000050108010B014D
:1003000000002100240027002A002D0030003300C7
:1003100001010000040107010A017C3C3E5E2B3D07
:100320003F2F5B5D3B2C2A225C0000000000003E5A
:100330005B4F5B3E3E6B4F6B3E1C3E7C3E1C183C55
:100340007E3C181C577D571C1C5E7F5E1C00183CB1
:100350001800FFE7C3E7FF0018241800FFE7DBE7FA
:10036000FF30483A060E2629792926407F050507E1
:10037000407F05253F5A3CE73C5A7F3E1C1C08083D
:100380001C1C3E7F14227F22145F5F005F5F060902
:100390007F017F006689956A606060606094A2FF5B
:1003A000A29408047E040810207E201008082A1C4D
:1003B00008081C2A08081E101010100C1E0C1E0C19
:1003C00030383E3830060E3E0E06000000000000B9
:1003D000005F00000007000700147F147F14242A28
:1003E0007F2A1223130864623649562050000807FA
:1003F0000300001C2241000041221C002A1C7F1C1B
:100400002A08083E0808008070300008080808081C
:10041000000060600020100804023E5149453E0083
:10042000427F400072494949462141494D331814E1
:10043000127F1027454545393C4A49493141211130
:1004400009073649494936464949291E0000140022
:100450000000403400000008142241141414141445
:10046000004122140802015909063E415D594E7CA3
:100470001211127C7F494949363E414141227F4158
:1004800041413E7F494949417F090909013E4141B6
:1004900051737F0808087F00417F41002040413FA1
:1004A000017F081422417F404040407F021C027FB0
:1004B0007F0408107F3E4141413E7F090909063E05
:1004C0004151215E7F0919294626494949320301D4
:1004D0007F01033F4040403F1F2040201F3F4038E6
:1004E000403F631408146303047804036159494DC1
:1004F00043007F4141410204081020004141417FF7
:10050000040201020440404040400003070800206C
:10051000545478407F28444438384444442838446C
:1005200044287F385454541800087E090218A4A4A3
:100530009C787F0804047800447D40002040403DC2
:10054000007F1028440000417F40007C047804783C
:100550007C080404783844444438FC1824241818CF
:10056000242418FC7C08040408485454542404042B
:100570003F44243C4040207C1C2040201C3C403018
:10058000403C44281028444C9090907C4464544C47
:1005900044000836410000007700000041360800A2
:1005A00002010204023C2623263C1EA1A161123A4C
:1005B0004040207A38545455592155557941225498
:1005C000547842215554784020545579400C1E529D
:1005D0007212395555555939545454593955545442
:1005E000580000457C410002457D420001457C40A9
:1005F0007D1211127DF0282528F07C5455450020ED
:1006000054547C547C0A097F4932494949323A445E
:1006100044443A324A4848303A4141217A3A4240C9
:100620002078009DA0A07D3D4242423D3D4040409B
:100630003D3C24FF2424487E4943662B2FFC2F2B6E
:10064000FF0929F620C0887E09032054547941000F
:1006500000447D413048484A32384040227A007A8E
:100660000A0A727D0D19317D2629292F282629296C
:10067000292630484D40203808080808080808088E
:10068000382F10C8ACBA2F102834FA00007B0000B5
:1006900008142A142222142A14085500550055AAB9
:1006A00055AA55AAFF55FF55FF000000FF00101086
:1006B00010FF00141414FF001010FF00FF1010F0C2
:1006C00010F0141414FC001414F700FF0000FF00D5
:1006D000FF1414F404FC141417101F10101F101F23
:1006E0001414141F00101010F0000000001F101050
:1006F00010101F10101010F010000000FF1010104C
:10070000101010101010FF10000000FF140000FF68
:1007100000FF00001F10170000FC04F41414171051
:10072000171414F404F40000FF00F7141414141444
:100730001414F700F7141414171410101F101F14BA
:100740001414F4141010F010F000001F101F00001B
:10075000001F14000000FC140000F010F01010FF47
:1007600010FF141414FF141010101F00000000F0EC
:1007700010FFFFFFFFFFF0F0F0F0F0FFFFFF0000C1
:10078000000000FFFF0F0F0F0F0F3844443844FCE8
:100790004A4A4A347E02020606027E027E026355FF
:1007A0004941633844443C04407E201E2006027EBA
:1007B000020299A5E7A5991C2A492A1C4C720172CC
:1007C0004C304A4D4D303048784830BC625A463D36
:1007D0003E494949007E0101017E2A2A2A2A2A44EB
:1007E000445F444440514A444040444A5140000020
:1007F000FF0103E080FF000008086B6B083612362B
:100800002436060F090F060000181800000010100B
:10081000003040FF0101001F01011E00191D1712C9
:10082000003C3C3C3C00000000006E06C20D29105C
:1008300011241FBECFEFD1E2DEBFCDBF00E00CBF61
:1008400013E0A0E0B2E0E6EBFCE500E00BBF02C085
:1008500007900D92A43CB107D9F729E0A4ECB3E0CE
:1008600001C01D92AA38B207E1F714E0C8E1D4E054
:1008700000E006C021970109802FFE010E94282E6A
:10088000C531D10780E00807A9F70E9407080C943A
:10089000DC2D0C9400002F923F924F925F926F924A
:1008A0007F928F929F92AF92BF92CF92DF92EF9200
:1008B000FF920F931F93CF93DF93CDB7DEB7CA5448
:1008C000D1090FB6F894DEBF0FBECDBF9CAF8BAF82
:1008D0004B0158AF4FAB39011EAF0DAF2196FFAEA4
:1008E000EEAE21972396BFAEAEAE23970DB71EB7DF
:1008F00025961FAF0EAF25978E01045E1F4FC801CE
:100900000E94FA10ABADBCAD4D915C9121E064E367
:1009100077E0CE0101960E94A70F8B819C819F8F6B
:100920008E8F8D819E81AF81B88588A399A3AAA35C
:10093000BBA389859A85AB85BC858CA39DA3AEA3FB
:10094000BFA38DE0FE013D96DE01989601900D92C9
:100950008A95E1F78A8D9B8D9EAB8DABC8010E9475
:100960008211F82ECE0101960E940D11FF20C1F0D8
:10097000F601EE0FFF1FFAAFE9AF1301412C512C26
:10098000E12CF12CAFA9B8ADCD01A0E0B0E02996E3
:100990008CAF9DAFAEAFBFAF2997702E612E29C02F
:1009A00061E172E082EF94E00E947D0AEBADFCAD64
:1009B0006081718182EF94E00E947D0A67E282EF9C
:1009C00094E00E94AC0AA6C0D401ED91FC9102888B
:1009D000F389E02DC40119950FB6F894BEBE0FBE81
:1009E000ADBEBFEFEB1AFB0AEFEF2E1A3E0A4E0A1E
:1009F0005E0A23960EAD1FAD2397E016F10609F4AB
:100A000082C0ADB6BEB60DB71EB729AD3AAD021B5A
:100A1000130B0FB6F8941EBF0FBE0DBF8DB79EB758
:100A2000019698AF8FABEBADFCADA281B381A20173
:100A300091010E944E2E29960CAD1DAD2EAD3FADFD
:100A40002997060F171F281F391FB901A801440F46
:100A5000551F661F771F872D962D0E94181149ADCF
:100A60005AAD6FA978AD872D962D0E940E1129AD34
:100A70003AAD8217930781F062E272E082EF94E070
:100A80000E949A0A872D962D0E9470110FB6F89435
:100A9000BEBE0FBEADBE3EC0D401ED91FC9106803E
:100AA000F781E02DC401199501E010E0960121962F
:100AB0004EAD5FAD21974E0D5F1D6DAD7EADC40196
:100AC0000E948B2A0FA918AD20E030E02C153D05BF
:100AD00009F47ACFF801619171918F017627672728
:100AE0007627C4012A962FAF2A972B963FAF2B97D4
:100AF0000E943C2B2A962FAD2A972B963FAD2B9721
:100B00002F5F3F4FE3CFCE014C960E947011CE0174
:100B10004C9602C0CE014C960E940D1125962EAD2A
:100B20003FAD25970FB6F8943EBF0FBE2DBFC65BF5
:100B3000DF4F0FB6F894DEBF0FBECDBFDF91CF9170
:100B40001F910F91FF90EF90DF90CF90BF90AF90EB
:100B50009F908F907F906F905F904F903F902F90DD
:100B60000895E4E2F4E021E030E08FEF9FEF21937D
:100B70003193DF01A255B1098D939C9344E0E43396
:100B8000F407A9F782E090E0909335048093340451
:100B900023E030E0309337042093360444E050E003
:100BA000509339044093380466E070E070933B043E
:100BB00060933A0465E070E070933D0460933C04F8
:100BC00050933F0440933E043093410420934004EB
:100BD00090934304809342048EEF9FEF9093C5035C
:100BE0008093C4032DEF3FEF3093C7032093C603D8
:100BF0004CEF5FEF5093C9034093C8036AEF7FEF58
:100C00007093CB036093CA036BEF7FEF7093CD03B8
:100C10006093CC035093CF034093CE033093D10322
:100C20002093D0039093D3038093D20380E090E08D
:100C300020E030E0AC01405E5F4FF901E40FF51FAA
:100C4000EC53FC4F118210822E5F3F4F2031310553
:100C5000A1F740968034910559F70895AF92BF925D
:100C6000CF92DF92EF92FF920F931F93CF93DF9378
:100C700000D000D0CDB7DEB709831A832B833C8325
:100C80004D835E832EE1269F7001279FF00C112477
:100C9000289F8001299F100D112489E1A82EB12CD5
:100CA00099E1C92ED12C20E030E040E050E060E531
:100CB00074E0CE0101960E944B0426960FB6F8947C
:100CC000DEBF0FBECDBFDF91CF911F910F91FF907F
:100CD000EF90DF90CF90BF90AF9008952FEF49E055
:100CE0006AE080E594E00E94622723E145E46BE836
:100CF00080E594E00E94562790934F0480934E0421
:100D00002FE345E86DEC80E594E00E945627909330
:100D10004D0480934C040895AF92BF92CF92DF921E
:100D2000EF92FF920F931F93CF93DF9360E070E0F9
:100D300080E594E00E940D22C12CD12CA12CB12C75
:100D4000C0E0D0E0C0FD05C0E0904C04F0904D0440
:100D500004C0E0904E04F0904F040EE110E02EE14C
:100D600030E0A601B50180E594E00E94FF262196BF
:100D70008EE1A80EB11CC830D10521F78CE3C80E56
:100D8000D11C80EFC816D104C9F68EE1C82ED12C33
:100D9000A12CB12CC0E0D0E0C0FD05C0E0904E0415
:100DA000F0904F0404C0E0904C04F0904D040EE12C
:100DB00010E02EE130E0A601B50180E594E00E944C
:100DC000FF2621968EE1A80EB11CC830D10521F76F
:100DD0008CE3C80ED11C8EE0C81681E0D806C1F69F
:100DE000DF91CF911F910F91FF90EF90DF90CF9007
:100DF000BF90AF900895EF92FF920F931F939B01C6
:100E00002170332780FF03C0232B41F402C0232B22
:100E100029F0E0904E04F0904F0404C0E0904C04A0
:100E2000F0904D042EE1269FA001279F500D112424
:100E3000289FB001299F700D11240EE110E02EE1D2
:100E400030E080E594E00E94FF261F910F91FF9013
:100E5000EF900895EF92FF920F931F932EE1269F3C
:100E6000A001279F500D1124289FB001299F700DCC
:100E7000112480EEE82EFF24FA940EE110E02EE11A
:100E800030E080E594E00E94A1221F910F91FF9035
:100E9000EF900895CF93DF9380914A0490914B0493
:100EA00090934904809348048091460490914704AC
:100EB000909345048093440487E30E943409EC0135
:100EC00086E30E94340920914A0430914B04C03CCF
:100ED00041E0D4071CF42150310905C0C134D2408F
:100EE00034F02F5F3F4F30934B0420934A042091FE
:100EF000460430914704803C41E094071CF42F5F86
:100F00003F4F05C08134924034F021503109309375
:100F100047042093460460914A0470914B04683062
:100F2000710514F067E070E077FF02C060E070E0E8
:100F300070934B0460934A04809146049091470457
:100F40008830910514F087E090E097FF02C080E0C0
:100F500090E0909347048093460420914804309198
:100F600049042617370739F4209144043091450489
:100F70002817390761F00E942A0760914804709190
:100F8000490480914404909145040E94FB0664E664
:100F900070E080E090E0DF91CF910C94AC080E946B
:100FA000D20848E253E260E070E082EF94E00E94F1
:100FB0003A0D40E050E0BA0180E594E00E94232819
:100FC00062E082E00E94AB0966E372E082EF94E0A7
:100FD0000E947D0A66E084E397E00E94940E8111EE
:100FE00007C06EE472E082EF94E00E949A0AFFCF9D
:100FF0006FE672E082EF94E00E949A0A63E080E577
:1010000094E00E94192A0E948C060C94B1050E945B
:10101000CF070E944A0782E00E94170A892BC9F76E
:1010200060914A0470914B040091000210910102FA
:101030002091020230910302409104025091050276
:1010400080914604909147040E942E0660914A04C4
:1010500070914B0480914604909147040E942A07A6
:10106000D8CF1F920F920FB60F9211242F933F9358
:101070008F939F93AF93BF93809184049091850445
:10108000A0918604B09187043091830423E0230F5C
:101090002D3720F40196A11DB11D05C026E8230FB0
:1010A0000296A11DB11D2093830480938404909324
:1010B0008504A0938604B09387048091880490915E
:1010C0008904A0918A04B0918B040196A11DB11DE1
:1010D0008093880490938904A0938A04B0938B042E
:1010E000BF91AF919F918F913F912F910F900FBE24
:1010F0000F901F9018952FB7F89460918404709109
:10110000850480918604909187042FBF08953FB78E
:10111000F8948091880490918904A0918A04B091F8
:101120008B0426B5A89B05C02F3F19F00196A11D81
:10113000B11D3FBFBA2FA92F982F8827820F911D6D
:10114000A11DB11DBC01CD0142E0660F771F881FB4
:10115000991F4A95D1F70895CF92DF92EF92FF92AF
:10116000CF93DF936B017C010E948708EB01C114D0
:10117000D104E104F10479F00E9487086C1B7D0B17
:10118000683E7340A0F381E0C81AD108E108F10875
:10119000C851DC4FECCFDF91CF91FF90EF90DF9003
:1011A000CF900895789484B5826084BD84B58160C1
:1011B00084BD85B5826085BD85B5816085BDEEE65F
:1011C000F0E0808181608083E1E8F0E0108280813E
:1011D00082608083808181608083E0E8F0E08081AC
:1011E00081608083E1EBF0E0808184608083E0EBCC
:1011F000F0E0808181608083E1E9F0E080818260BD
:101200008083808181608083E0E9F0E0808181607B
:101210008083E1EAF0E08081826080838081816068
:101220008083E0EAF0E0808181608083E1E2F1E0A8
:10123000808182608083808181608083E0E2F1E050
:10124000808181608083EAE7F0E080818460808330
:1012500080818260808380818160808380818068DA
:1012600080831092C1000895863308F086539091D0
:101270007B00282F2870977F922B90937B0087709C
:101280002091060290E4299F90011124822B8093E3
:101290007C0080917A00806480937A0080917A004B
:1012A00086FDFCCF809178002091790090E0922B10
:1012B000089590E0FC013197E131F10508F04AC052
:1012C0008827EE58FF4F8F4F0C94282E8091800076
:1012D0008F7703C0809180008F7D80938000089578
:1012E00084B58F7702C084B58F7D84BD08958091C9
:1012F000B0008F7703C08091B0008F7D8093B000E5
:101300000895809190008F7707C0809190008F7D25
:1013100003C080919000877F809390000895809112
:10132000A0008F7707C08091A0008F7D03C08091BF
:10133000A000877F8093A0000895809120018F777F
:1013400007C0809120018F7D03C080912001877F9D
:10135000809320010895CF93DF9390E0FC01E05C3F
:10136000FD4F2491FC01EA57FD4F8491882361F1E0
:1013700090E0880F991FFC01E050FD4FC591D4917A
:10138000FC01EA51FD4FA591B491611109C09FB7CD
:10139000F8948881209582238883EC912E230BC0BA
:1013A000623061F49FB7F8943881822F809583234F
:1013B0008883EC912E2B2C939FBF06C08FB7F89497
:1013C000E8812E2B28838FBFDF91CF9108951F9343
:1013D000CF93DF93282F30E0F901E650FE4F849140
:1013E000F901E05CFD4FD491F901EA57FD4FC4913A
:1013F000CC23C9F0162F81110E945909EC2FF0E07F
:10140000EE0FFF1FEA51FD4FA591B4918FB7F894ED
:10141000111105C09C91ED2FE095E92302C0EC91DC
:10142000ED2BEC938FBFDF91CF911F910895CF9358
:10143000DF93282F30E0F901E650FE4F8491F90147
:10144000E05CFD4FD491F901EA57FD4FC491CC23E4
:1014500091F081110E945909EC2FF0E0EE0FFF1F6F
:10146000E453FD4FA591B491EC91ED2381E090E020
:1014700021F480E002C080E090E0DF91CF910895F8
:10148000CF92DF92EF92FF920F931F93CF93DF9350
:101490006C01EB017B01E40EF51E00E010E0CE15BF
:1014A000DF0561F06991D601ED91FC910190F08129
:1014B000E02DC6011995080F191FF1CFC801DF9162
:1014C000CF911F910F91FF90EF90DF90CF900895F3
:1014D0006115710579F0FB0101900020E9F7319762
:1014E000AF01461B570BDC01ED91FC910280F381AB
:1014F000E02D199480E090E008950C94680ADC01D6
:10150000ED91FC910190F081E02D19940F931F93C0
:10151000CF93DF93EC016DE00E947F0A8C016AE0BB
:10152000CE010E947F0A800F911FDF91CF911F9102
:101530000F9108950F931F93CF93DF93EC010E94B7
:10154000680A8C01CE010E94860A800F911FDF91EC
:10155000CF911F910F9108950F931F93CF93DF9316
:10156000EC010E947F0A8C01CE010E94860A800F46
:10157000911FDF91CF911F910F9108950895FC0164
:1015800024853585F901E05CFF4F80819181329699
:1015900020813181821B930B8F7399270895DC0181
:1015A0001C96ED91FC911D97DF01A05CBF4F2D9122
:1015B0003C91119712968D919C911197281739079C
:1015C00039F08D919C91E80FF91F808190E008958A
:1015D0008FEF9FEF0895FC01A485B585FD01E05CC8
:1015E000FF4F208131813296808191812817390700
:1015F00079F080819181A80FB91F8C912081318170
:101600002F5F3F4F2F7333273183208390E008955E
:101610008FEF9FEF0895FC0181A1882329F0A48911
:10162000B5898C9186FFFBCF11A208950F931F936C
:10163000CF93DF93FC01A685B7858D01005C1F4F1A
:10164000E8018881998101968F739927AD014E5BDE
:101650005F4FEA012881398182179307D1F3E801AE
:1016600028813981A20FB31F6C93A685B785A05C32
:10167000BF4F11969C938E93A689B7892C9181E0D8
:1016800090E0078C02C0880F991F0A94E2F7822B22
:101690008C9381E081A30488F589E02D80818064AA
:1016A000808381E090E0DF91CF911F910F910895A9
:1016B000FB01E05CFF4F208131812F5F3F4F2F7393
:1016C0003327DB01AE5BBF4F4D915C91241735078B
:1016D00041F040815181DB01A40FB51F8C93318310
:1016E000208308951F920F920FB60F9211240BB60C
:1016F0000F922F933F934F935F936F937F938F93AB
:101700009F93AF93BF93EF93FF938091C00082FDAF
:1017100007C08091C60060EF76E00E94580B02C0BF
:101720008091C600FF91EF91BF91AF919F918F91F2
:101730007F916F915F914F913F912F910F900BBED1
:101740000F900FBE0F901F9018951F920F920FB61B
:101750000F9211240BB60F922F933F934F935F93E9
:101760006F937F938F939F93AF93BF93EF93FF9369
:101770008091C80082FD07C08091CE0068E676E0C7
:101780000E94580B02C08091CE00FF91EF91BF9153
:10179000AF919F918F917F916F915F914F913F9109
:1017A0002F910F900BBE0F900FBE0F901F901895AA
:1017B0001F920F920FB60F9211240BB60F922F9318
:1017C0003F934F935F936F937F938F939F93AF93C9
:1017D000BF93EF93FF938091D00082FD07C080916B
:1017E000D60060EE75E00E94580B02C08091D600D2
:1017F000FF91EF91BF91AF919F918F917F916F91E9
:101800005F914F913F912F910F900BBE0F900FBEA4
:101810000F901F9018951F920F920FB60F921124E0
:101820000BB60F922F933F934F935F936F937F93DA
:101830008F939F93AF93BF93EF93FF93809130016A
:1018400082FD07C08091360168E575E00E94580B63
:1018500002C080913601FF91EF91BF91AF919F91AE
:101860008F917F916F915F914F913F912F910F9049
:101870000BBE0F900FBE0F901F9018951F920F92E6
:101880000FB60F9211240BB60F922F933F938F93A5
:101890009F93EF93FF932091EC063091ED0680919A
:1018A000EE069091EF062817390731F48091C100B8
:1018B0008F7D8093C10014C0E091EE06F091EF0699
:1018C000E455F94F20818091EE069091EF06019644
:1018D0008F7399279093EF068093EE062093C600AE
:1018E000FF91EF919F918F913F912F910F900BBEA0
:1018F0000F900FBE0F901F9018951F920F920FB66A
:101900000F9211240BB60F922F933F938F939F93B7
:10191000EF93FF93209164063091650680916606EF
:10192000909167062817390731F48091C9008F7D9F
:101930008093C90014C0E0916606F0916706EC5DE3
:10194000F94F2081809166069091670601968F730A
:10195000992790936706809366062093CE00FF91A7
:10196000EF919F918F913F912F910F900BBE0F9010
:101970000FBE0F901F9018951F920F920FB60F92E7
:1019800011240BB60F922F933F938F939F93EF9356
:10199000FF932091DC053091DD058091DE0590916B
:1019A000DF052817390731F48091D1008F7D8093AE
:1019B000D10014C0E091DE05F091DF05E456FA4F46
:1019C00020818091DE059091DF0501968F73992724
:1019D0009093DF058093DE052093D600FF91EF9171
:1019E0009F918F913F912F910F900BBE0F900FBE43
:1019F0000F901F9018951F920F920FB60F921124FF
:101A00000BB60F922F933F938F939F93EF93FF9378
:101A100020915405309155058091560590915705B8
:101A20002817390731F4809131018F7D809331017E
:101A300014C0E0915605F0915705EC5EFA4F2081F5
:101A4000809156059091570501968F739927909331
:101A500057058093560520933601FF91EF919F9192
:101A60008F913F912F910F900BBE0F900FBE0F9053
:101A70001F901895CF92DF92EF92FF920F931F93D2
:101A8000CF93DF93EC016A017B014115514E610553
:101A9000710509F1EC89FD8981E090E008A002C0A0
:101AA000880F991F0A94E2F7808360E079E08DE364
:101AB00090E0A70196010E94062E89019A0101502B
:101AC0001109210931093695279517950795980130
:101AD00001151041A8F0EC89FD89108260E874E8D6
:101AE0008EE190E0A70196010E94062EDA01C9015D
:101AF0000197A109B109B695A795979587959C017E
:101B0000E889F9893083EA89FB89208319A2EE8963
:101B1000FF89408181E090E09C010C8C02C0220F83
:101B2000331F0A94E2F7242B2083EE89FF8940813A
:101B30009C010D8C02C0220F331F0A94E2F7242B64
:101B40002083EE89FF8940819C010E8C02C0220F08
:101B5000331F0A94E2F7242B2083EE89FF8920812A
:101B60000F8C02C0880F991F0A94E2F78095822398
:101B70008083DF91CF911F910F91FF90EF90DF90C5
:101B8000CF900895CF92DF92EF92FF92E2EFF4E0D0
:101B90001382128288EEC82E83E0D82EE12CF12C1D
:101BA000C482D582E682F7826DE473E0718360833C
:101BB00080EF96E0958784878CEA96E09787868702
:101BC00085EC90E0918B808B84EC90E0938B828B02
:101BD00080EC90E0958B848B81EC90E0978B868BEA
:101BE00082EC90E0918F808F86EC90E0938F828FD3
:101BF00044E0448F33E0358F27E0268F95E0978FC0
:101C000081E080A3E0EDF4E013821282C482D582E9
:101C1000E682F78271836083A8E6B6E0B587A48781
:101C2000A4E2B6E0B787A687ADECB0E0B18BA08B9D
:101C3000ACECB0E0B38BA28BA8ECB0E0B58BA48B7E
:101C4000A9ECB0E0B78BA68BAAECB0E0B18FA08F67
:101C5000AEECB0E0B38FA28F448F358F268F978F75
:101C600080A3EEEAF4E013821282C482D582E68277
:101C7000F78271836083A0EEB5E0B587A487ACE9F5
:101C8000B5E0B787A687A5EDB0E0B18BA08BA4ED3A
:101C9000B0E0B38BA28BA0EDB0E0B58BA48BA1ED2F
:101CA000B0E0B78BA68BA2EDB0E0B18FA08FA6ED10
:101CB000B0E0B38FA28F448F358F268F978F80A38C
:101CC000ECE8F4E013821282C482D582E682F782C5
:101CD0007183608368E575E07587648764E175E00A
:101CE0007787668765E371E0718B608B64E371E0F1
:101CF000738B628B60E371E0758B648B61E371E0E1
:101D0000778B668B62E371E0718F608F66E371E0C1
:101D1000738F628F448F358F268F978F80A3FF90AC
:101D2000EF90DF90CF9008950F931F93CF93DF93A1
:101D3000EC01462F61E00E948C19882391F08E01FE
:101D4000045F1F4F41E0BE01C8010E94421F88236B
:101D500051F0B801CE018A960E94681291E081117B
:101D60000AC090E008C040E0BE01C8010E94421FC6
:101D70008823B9F3EECF892FDF91CF911F910F9177
:101D80000895FC01DB0112968D919C91139793832A
:101D900082838FE693E09183808314968C911497CD
:101DA000848315968C911597858316964D915D9138
:101DB0006D917C91199746835783608771871A9636
:101DC0004D915D916D917C911D97428753876487FA
:101DD00075871E964D915D916D917C9151974687C7
:101DE0005787608B718B52968C915297828B53964A
:101DF0004D915D916D917C915697438B548B658B82
:101E0000768B57964D915D916D917C915A97478B4A
:101E1000508F618F728F5B968D919C915C97948FA0
:101E2000838F08954F925F926F927F928F929F92CD
:101E3000AF92BF92CF92DF92EF92FF920F931F93D8
:101E4000CF93DF93CDB7DEB7C754D1090FB6F8945F
:101E5000DEBF0FBECDBF6C015A014901665D7F4FE9
:101E60007E018EE1E80EF11CC7010E94C10E1C82AA
:101E70001B828FE693E09A8389831E828501FE018F
:101E800031963F0127016FE270E0C8010E94EC2DFE
:101E90000097D9F1F80120812F3219F40F5F1F4FFD
:101EA000F2CF801B8D3008F08CE0E82EF12CA701DA
:101EB000B801CE01CB960E94F72DEBE3F0E0EC0FDA
:101EC000FD1FEE0DFF1D1082C3010E94E41421E0EE
:101ED000AE01455C5F4FB201C3010E94181681112B
:101EE00009C0F601138212828FE693E0918380830A
:101EF000158214C00E0D1F1DC2010E94E414942D02
:101F0000852D2301692E782EBECF0A191B09F401F5
:101F100011830083B201C6010E94C10EC601C95BD4
:101F2000DF4F0FB6F894DEBF0FBECDBFDF91CF916C
:101F30001F910F91FF90EF90DF90CF90BF90AF90E7
:101F40009F908F907F906F905F904F900895CF9269
:101F5000DF92FF920F931F93CF93DF93CDB7DEB73E
:101F6000C955D1090FB6F894DEBF0FBECDBF6C01C5
:101F70008A01F22E9E01285A3F4FCE01CB960E9435
:101F8000120F6A968EAD9FAD6A97080F191FF80160
:101F9000808181110AC0BE01655C7F4FCE01019630
:101FA0000E94C10E49E553E03EC019A218A28FE677
:101FB00093E09F8F8E8F1BA221968FAD2197811169
:101FC00004C0C6010E94FA1034C082502F2DA8010F
:101FD000823048F46EE577E0CE014E960E941816E6
:101FE00081110EC0EECFBE01655C7F4FCE014E96D3
:101FF0000E941816882329F3CE01CB960E94E41480
:102000009F2D967041F049A95AA96BA97CA9CE01D0
:102010004E960E940714BE01625E7F4FCE0101966C
:102020000E94C10EA801BE016F5F7F4FC6010E94D2
:10203000C510C601C75ADF4F0FB6F894DEBF0FBEFA
:10204000CDBFDF91CF911F910F91FF90DF90CF9087
:102050000895E4E3F7E0158216821186138682E084
:1020600090E0A0E0B0E084879587A687B78713A2A9
:1020700015A614A68FE693E093A782A717A6089546
:10208000CF93DF931F92CDB7DEB76983DC01ED916B
:10209000FC910280F381E02D41E050E0BE016F5FD2
:1020A0007F4F19950F90DF91CF910895CF93DF93D4
:1020B000EC01898D9A8D009739F481E090E09B8343
:1020C0008A8380E090E00BC0FC01138212820E94A0
:1020D0000617E98DFA8D22813381232B71F7DF9169
:1020E000CF910895FC01818D928D009711F00C9491
:1020F0009D140895CF93DF931F92CDB7DEB741E0D3
:1021000050E0BE016F5F7F4F0E94B912019719F432
:10211000898190E002C08FEF9FEF0F90DF91CF9108
:102120000895FC01818D928D009711F00C947A1026
:102130008FEF9FEF08950F931F93CF93DF93FC01D1
:10214000818D928D0097B9F0EF010E947A108C0179
:102150000F3F8FEF180791F0898D9A8DFC01428512
:1021600053856485758541505109610971090E9443
:102170000714C80105C080E090E002C08FEF9FEF18
:10218000DF91CF911F910F910895EF92FF920F93DE
:102190001F93CF93DF93EC017B018A011B821A828C
:1021A00088EE93E0A0E0B0E08C839D83AE83BF8394
:1021B0008FE593E0998388838DE190E00E947C2CE9
:1021C0009A8F898F009779F02DE1F701DC0101905A
:1021D0000D922A95E1F74CE050E0B801CE010C9643
:1021E0000E94F72D188EDF91CF911F910F91FF90D4
:1021F000EF900895FC011382128288EE93E0A0E034
:10220000B0E084839583A683B7838FE593E09183C1
:102210008083128E118E148608950895FC01818D9D
:10222000928D009711F00C94B91280E090E008951F
:10223000FC01818D928D009711F00C94071480E0C1
:102240000895DC015996ED91FC915A97309729F049
:10225000628573858485958508956FEF7FEFCB0147
:102260000895DC015996ED91FC915A97309729F029
:102270006389748985899689089560E070E0CB014F
:102280000895CF92DF92EF92FF92CF93DF93FC01FC
:10229000218D328D232BD9F0EC010E9431116B017D
:1022A0007C01CE010E942111A7019601261B370B4C
:1022B000480B590BDA01C901811530E89307A105D4
:1022C000B10538F08FEF9FE7A0E0B0E002C080E0FA
:1022D00090E0DF91CF91FF90EF90DF90CF90089545
:1022E000CF93DF93EC01898D9A8D009741F00E9486
:1022F000E414898D9A8D0E94112D1A8E198EDF910A
:10230000CF910895DC015996ED91FC915A97309741
:1023100021F081E09581911101C080E00895CF9373
:10232000DF93EC019C012A5F3F4F41E050E060E009
:1023300070E08B8D9C8D0E94D71D8823A1F08F8922
:10234000988DA98DBA8D892B8A2B8B2B59F48E8170
:102350009F81A885B9858F8B988FA98FBA8F8C8123
:1023600080688C8381E0DF91CF910895CF92DF92D6
:10237000EF92FF921F93CF93DF93EC010E948F1196
:10238000811102C080E04AC0EB8DFC8DCE80DF80E1
:10239000E884F98482E0C81AD108E108F1080584CC
:1023A00004C0CC0CDD1CEE1CFF1C0A94D2F7868501
:1023B0009785A089B189C80ED91EEA1EFB1E14811B
:1023C00081E0C81AD108E108F108112361F0C701C2
:1023D000B601610F711D811D911D0E94261C88236D
:1023E00089F21150F2CFEB8DFC8D80E092E0A0E0FD
:1023F000B0E0058404C0880F991FAA1FBB1F0A9470
:10240000D2F74B895C896D897E89840F951FA61F41
:10241000B71F8B8B9C8BAD8BBE8B81E0DF91CF91F7
:102420001F91FF90EF90DF90CF900895CF93DF93AF
:10243000EC01462F6E857F85888999890E94EB1B68
:10244000882341F08A8920E2829FC00111248A57A3
:10245000984F02C080E090E0DF91CF910895FB019A
:102460009B01255F3F4F40E24193E217F307E1F7FD
:10247000DC0190E027E08D91882319F18E3219F06C
:10248000EAE1F3E008C02A3009F198E02AE0F3CF4E
:1024900031963817D9F034913111FACF2917B0F0AD
:1024A0003FED380F3E3590F431E0390FFB01E90F75
:1024B000F11D9FE9980F9A3108F480528083932F81
:1024C000DACF81E0FB019081903209F480E0089539
:1024D0000F931F93CF93DF93FC012581222311F0EB
:1024E00080E042C08B01EC01FB0187898031B1F4AF
:1024F00082E08D831F8A188E198E1A8E808D918DA1
:10250000A0E0B0E025E0880F991FAA1FBB1F2A9505
:10251000D1F78B8B9C8BAD8BBE8B15C0803201F7B6
:1025200083E08D83FB01428D538D648D758D4F8BC0
:10253000588F698F7A8F9E012D5E3F4FC8010E9490
:10254000CE1C882369F21C8F0B8F81E08C831E8246
:102550001F82188619861A861B861C861D861E8673
:102560001F86188A198A1A8ADF91CF911F910F91BD
:1025700008952F923F924F925F926F927F928F9227
:102580009F92AF92BF92CF92DF92EF92FF920F9302
:102590001F93CF93DF93EC015B014A018D81811181
:1025A00003C08FEF9FEFD7C08C8180FFFACF4B889D
:1025B0005C886D887E884A855B856C857D85C401D5
:1025C000A0E0B0E093018201041B150B260B370B32
:1025D000081719072A073B0718F44201841A950ABD
:1025E00024011E0126E0220E311C4114510409F47D
:1025F0007EC04A855B856C857D856A0181E0D82235
:10260000ED818A019B0189E03695279517950795FD
:102610008A95D1F78B8D9C8DE23061F4FC01828D1F
:10262000938DA48DB58DBC01CD01600F711F821FEC
:10263000931F3FC0FC0174807A947022C114D104AE
:10264000C9F4711017C0452B462B472B49F48F89CD
:10265000988DA98DBA8D8E839F83A887B9870AC06C
:102660004E815F816885798591010E944A1C88238B
:1026700009F497CFEB8DFC8D8E819F81A885B9855C
:102680000297A109B109058404C0880F991FAA1FE8
:10269000BB1F0A94D2F74685578560897189840FDC
:1026A000951FA61FB71FBC01CD01670D711D811DB0
:1026B000911D20E032E02C193D0932012415350529
:1026C00008F439012C8126FD04C06114F2E07F0674
:1026D00079F50091070210910802209109023091CA
:1026E0000A02601771078207930719F421C0C40119
:1026F00032C0750183019601AB01BC018091840752
:10270000909185070E940E1B882309F44ACFA60CDE
:10271000B71C8A859B85AC85BD85860D971DA11D3F
:10272000B11D8A879B87AC87BD87461857085DCF48
:1027300040E00E94EB1B882309F433CFF601EA57EF
:10274000F84FD501CF01860D971DE817F907F9F26B
:1027500021912D93FACFDF91CF911F910F91FF908F
:10276000EF90DF90CF90BF90AF909F908F907F9031
:102770006F905F904F903F902F900895FF920F932E
:102780001F93CF93DF931F92CDB7DEB7FC01258156
:10279000223018F480E090E033C08C01FC014285C7
:1027A00053856485758585E076956795579547953A
:1027B0008A95D1F7F42FFF70FF2E41E050E0BE0163
:1027C0006F5F7F4FC8010E94B912019719F4898188
:1027D00090E002C08FEF9FEF0196E1F2F801828551
:1027E0009385A485B5854F96A11DB11D82879387DA
:1027F000A487B587F0E2FF9EC00111248A57984F45
:102800000F90DF91CF911F910F91FF9008958F92BC
:102810009F92AF92BF92CF92DF92EF92FF920F936F
:102820001F93CF93DF93EC018D81811102C080E073
:1028300077C00B891C892D893E8904171507260747
:102840003707A8F36A017B01823029F4CA86DB8648
:10285000EC86FD860DC0C114D104E104F10451F4ED
:102860001E821F82188619861A861B861C861D8664
:1028700081E056C08A849B84AC84BD84EB8DFC8D42
:10288000258530E0275F3F4FB501A4014150510934
:1028900061097109022E04C0769567955795479591
:1028A0000A94D2F7D701C6010197A109B10904C062
:1028B000B695A795979587952A95D2F7841795078A
:1028C000A607B70720F089288A288B2849F44F8962
:1028D000588D698D7A8D4E835F836887798704C0B0
:1028E000841B950BA60BB70B4C015D018E010A5F93
:1028F0001F4F81149104A104B10409F4A7CF4E81A4
:102900005F816885798598018B8D9C8D0E944A1C1A
:1029100091E0891A9108A108B1088111EACF87CF07
:10292000DF91CF911F910F91FF90EF90DF90CF90AB
:10293000BF90AF909F908F9008950F931F93CF9368
:10294000DF93EC018D818823C9F18C8187FF30C032
:1029500061E0CE010E9416128C01892B79F18D81E4
:10296000823048F48B899C89AD89BE89F801848FB7
:10297000958FA68FB78F8F89988DA98DBA8DF80105
:10298000938F828FB58BA48BE0917D07F0917E07AA
:10299000309759F0B8016A5E7F4FC8014896199583
:1029A000F801808D918D938B828B8C818F778C83B6
:1029B000DF91CF911F910F910C94B01B80E0DF91BC
:1029C000CF911F910F910895CF93DF93EC010E9457
:1029D0009D14882311F01D8281E0DF91CF9108952D
:1029E0004F925F926F927F928F929F92AF92BF921F
:1029F000EF92FF920F931F93CF93DF9300D01F921C
:102A0000CDB7DEB7FC0185818130E9F4848181FF97
:102A10001AC083899489A589B68984179507A60762
:102A2000B70788F0892B8A2B8B2B09F479C04A01D0
:102A30005B017F014284538464847584CF010E94CA
:102A40000714811102C080E06CC0F701838D948D62
:102A500081149104A104B10471F44789508D618DF2
:102A6000728D0E94EC1E882371F3F701178A108E75
:102A7000118E128E3AC0F7014681578160857185AB
:102A80009E012F5F3F4F0E944A1C8823E1F249813B
:102A90005A816B817C81F701838D948DFC0127899C
:102AA000203129F008EF1FEF2FEF3FE004C008EFBF
:102AB0001FEF20E030E04017510762077307A8F4CA
:102AC0000E94EC1E882309F4BECFF701468157818E
:102AD000608571850FEF1FEF2FEF3FE0838D948DA1
:102AE0000E94371D882309F4AECFF701838A948AA8
:102AF000A58AB68A848180688483C7010E949D1458
:102B0000882309F4A0CFB501A401481459046A042C
:102B10007B0410F4B301A201C7010E94071401C095
:102B200081E00F900F900F900F90DF91CF911F9148
:102B30000F91FF90EF90BF90AF909F908F907F90FC
:102B40006F905F904F9008951F93CF93DF93EC01A8
:102B500080E2689FF00111249F012A57384FD90164
:102B60001B969C91917129F0842F827411F080E062
:102B70005BC0142F6A8B8091070290910802A0918C
:102B80000902B0910A028E879F87A88BB98BEA57FA
:102B9000F84F4489558960E070E0BA015527442711
:102BA0004F8B588F698F7A8F828D938DA0E0B0E024
:102BB000482B592B6A2B7B2B4F8B588F698F7A8F21
:102BC000D9011B968C91887151F4848D958DA68DB9
:102BD000B78D8B8B9C8BAD8BBE8B81E00DC0803114
:102BE00031F69E012D5E3F4F8B8D9C8D0E94CE1C39
:102BF000882309F4BCCF84E08D83812F8F708C8370
:102C00001E821F82188619861A861B861C861D86C0
:102C100016FF09C040E050E0BA01CE01DF91CF912C
:102C20001F910C94F01481E0DF91CF911F910895D2
:102C3000CF92DF92EF92FF920F931F93CF93DF9388
:102C4000CDB7DEB72C970FB6F894DEBF0FBECDBF61
:102C5000FC0135813111C2C0D22E8B017C01BE0135
:102C60006F5F7F4FCA010E942F12882309F4B6C0FC
:102C7000F801838D948DF701948F838FF80116826C
:102C8000178210861186128613861486158630E008
:102C9000F80182859385A485B58543895489658922
:102CA000768984179507A607B70708F041C025E085
:102CB000B695A795979587952A95D1F7F82FFF7028
:102CC000CF2EC8013C870E94BE133C85009709F4B3
:102CD00085C0FC012081222309F484C0253E99F09F
:102CE0004BE050E0BC01CE0101963C870E94DF2DF5
:102CF0003C85892B69F68D2D8073803309F46EC075
:102D00004D2D6C2D67C031116BC0F701C28A409107
:102D10000702509108026091090270910A024687E9
:102D20005787608B718BFC01808131E08111B0CFBE
:102D30008D2D8271823109F051C0332341F061E061
:102D4000C7010E9416128C01892B79F447C0F80143
:102D50008581823009F442C0C8010E94B6118823DF
:102D6000E9F1F701128A06E817E080E2F801119212
:102D70008A95E9F78BE0FE013196D80101900D921A
:102D80008A95E1F7E0917D07F0917E07309739F061
:102D9000B801625F7F4FC8014096199509C081E272
:102DA00098E2F801918B808B80E098E09787868786
:102DB000F80180899189938B828B918F808F868592
:102DC0009785978B868B0E94B01B882339F04D2DF9
:102DD000F7016289C7010E94A41509C080E007C0FD
:102DE00031E056CF332309F490CF31E0A1CF2C96B8
:102DF0000FB6F894DEBF0FBECDBFDF91CF911F910C
:102E00000F91FF90EF90DF90CF9008952F923F9217
:102E10004F925F926F927F928F929F92AF92BF92EA
:102E2000CF92DF92EF92FF920F931F93CF93DF9396
:102E300000D01F92CDB7DEB78C016B013A01DC01E7
:102E400015968C9115978130C9F414968C9181FF59
:102E500015C082FF1DC0F8014389548965897689B0
:102E600082859385A485B58584179507A607B7073E
:102E700079F0C8010E94071481110AC081E090E036
:102E8000D80113969C938E93129780E090E048C1EE
:102E9000430184C0D8015B968D919C915C97FC01A5
:102EA00054802FEF250D1A012B0139E056944794D9
:102EB000379427943A95D1F7522E52207A01F1E0B7
:102EC000FF22552009F476C080E092E08E199F0918
:102ED00054018815990508F45C01D8015B962D9181
:102EE0003C915C9716968D919D910D90BC91A02D73
:102EF0000297A109B109F901058404C0880F991F3F
:102F0000AA1FBB1F0A94D2F746855785608971892D
:102F1000840F951FA61FB71F9C01AD01250D311D04
:102F2000411D511D19012A01A11432E0B30609F017
:102F300088C08091070290910802A0910902B09187
:102F40000A0282159305A405B50559F48FEF9FEF8A
:102F5000DC018093070290930802A0930902B093CA
:102F60000A029601B201A101809184079091850720
:102F70000E94621B882309F481CF9EEFD91A8A1818
:102F80009B08F80182859385A485B5858A0D9B1DD4
:102F9000A11DB11D82879387A487B587D8011A9692
:102FA0004D915D916D917C911D978114910409F073
:102FB00071CF87C0E114F10409F086CF16964D91C8
:102FC0005D916D917C9119974115510561057105D0
:102FD00059F457968D919D910D90BC91A02D00971D
:102FE000A105B10541F521C09E012F5F3F4F0E9411
:102FF0004A1C882309F44ACF89819A81AB81BC811C
:10300000F801238D348DF9012789203129F048EF0B
:103010005FEF6FEF7FE004C048EF5FEF60E070E0CC
:1030200084179507A607B70730F0C8010E948F11D3
:1030300081114ACF23CFF80186839783A087B18778
:1030400043CFE114F10429F5D8011A964D915D9111
:103050006D917C911D9753968D919D910D90BC9192
:10306000A02D481759076A077B0798F00E94B01BEC
:10307000882309F403CF209207023092080240927D
:10308000090250920A02809183078160809383072E
:1030900008C041E0C201B1010E94EB1B882309F482
:1030A000EDCED601F701EA57F84FCF018A0D9B1DEF
:1030B000E817F90719F02D912193FACFCA0CDB1C00
:1030C0005ECF5396CD90DD90ED90FC905697149680
:1030D0008C91C416D506E606F70640F4F801438B3A
:1030E000548B658B768B806884830DC020917D071F
:1030F00030917E07232B39F06114710421F0806830
:10310000D80114968C93F801848183FD02C0C30119
:1031100007C0C8010E949D14882309F4AFCEF7CFE1
:103120000F900F900F900F90DF91CF911F910F9103
:10313000FF90EF90DF90CF90BF90AF909F908F90D7
:103140007F906F905F904F903F902F900895CF9316
:10315000DF931F92CDB7DEB7698341E050E0BE0137
:103160006F5F7F4F0E9406170F90DF91CF910895F8
:103170008EBD0DB407FEFDCF08958FEF0E94B818E5
:103180008EB5089561E0FC0184810C94E70960E04C
:10319000FC0184810C94E709CF93DF93FC018681C5
:1031A0008823D1F08FEF8EBD4FEF878190859C01F2
:1031B0002F5F3F4F308727838130924028F40DB432
:1031C00007FEFDCF4EBDF1CF0DB407FEFDCFEF01E1
:1031D000CF010E94C2181E82DF91CF9108956730FF
:1031E00028F026E1FC01258380E008958DB560FD7F
:1031F00002C0663011F48E7F01C081608DBD8CB538
:103200008C7F8CBD9CB562FD02C080E001C082E075
:1032100066956170692B862B8CBD81E008950F93B4
:103220001F93CF93DF93EB010E947B088B010E94D9
:10323000BD188F3F49F00E947B08601B710B6C1713
:103240007D07A8F380E001C081E0DF91CF911F915D
:103250000F910895CF92DF92FF920F931F93CF9318
:10326000DF9300D01F92CDB7DEB76C01F62E298315
:103270003A834B835C830E94CC18C6010E94C71816
:103280006CE271E0C6010E940F198F2D80640E94CC
:10329000B81808E110E05C814B813A812981DA019C
:1032A000C901002E04C0B695A795979587950A94F5
:1032B000D2F729833A834B835C830E94B818085065
:1032C000110929813A814B815C81083F8FEF1807F2
:1032D00031F7FF2029F0E8E0FE1204C087E803C0C0
:1032E00085E901C08FEF0E94B81810E00E94BD1858
:1032F000F601828787FF04C01F3F11F01F5FF6CFE2
:103300000F900F900F900F90DF91CF911F910F9121
:10331000FF90DF90CF9008958F929F92AF92BF92CF
:10332000EF92FF920F931F93CF93DF93EC01E62E62
:103330001B8619861E821D824C830E947B088B018E
:1033400061E08C810E94AB09CE010E94C21860E04E
:1033500082E30E94AB0961E083E30E94AB0961E074
:1033600084E30E94AB0961E085E30E94AB0961E060
:1033700085E30E94E70983E58CBD8DB58E7F8DBD09
:103380002AE0F22E8FEF0E94B818FA94F110FACFCB
:10339000CE010E94C71820E030E0A90160E0CE0114
:1033A0000E942A19F82E8A8781E0F81649F00E94B7
:1033B0007B08601B710B613D774068F381E04CC076
:1033C0002AEA31E040E050E068E0CE010E942A198C
:1033D00082FF02C0FB860EC094E0F92E0E94BD1849
:1033E0008A87FA94F110FACF8A3A11F082E034C059
:1033F00082E08B878B85823021F0812C912C5401C7
:1034000005C0812C912CA12C80E4B82E20E030E066
:10341000A90167E3CE010E942A19A501940169E27E
:10342000CE010E942A198A87882349F00E947B08CE
:10343000601B710B613D774048F388E00DC08B85C0
:10344000823039F520E030E0A9016AE3CE010E9424
:103450002A19882389F086E08D83CE010E94C21844
:1034600080E0DF91CF911F910F91FF90EF90BF907F
:10347000AF909F908F9008950E94BD18807C803CF3
:1034800011F483E08B870E94BD180E94BD180E9432
:10349000BD18CE010E94C2186E2DCE01DF91CF91D2
:1034A0001F910F91FF90EF90BF90AF909F908F90E2
:1034B0000C94EF180F931F93CF93DF93EC010E94AE
:1034C0007B088B010E94BD188A878F3F49F40E94B8
:1034D0007B08601B710B6D327140A0F38FE003C05D
:1034E0008E3F39F08DE08D83CE010E94C21880E0BE
:1034F00001C081E0DF91CF911F910F910895CF928C
:10350000DF92EF92FF920F931F93CF93DF93EC0123
:103510006901C801820F931F8130924008F06FC08B
:103520008E81882371F088819981AA81BB81481797
:1035300059076A077B0729F48F819885C816D90631
:1035400018F5488359836A837B838B85833039F0F0
:1035500089E0440F551F661F771F8A95D1F79A019E
:10356000AB0161E1CE010E942A19882319F083E0A2
:103570008D8345C0CE010E945A1A882309F43FC0AA
:1035800018861F8281E08E838FEF8EBD2FEF8F8193
:1035900098858C159D0550F40DB407FEFDCF2EBD0A
:1035A0008F819885019698878F83F1CFC801019705
:1035B000F7014FEF9F012E193F092817390738F4FB
:1035C0000DB407FEFDCF2EB521934EBDF3CF0DB444
:1035D00007FEFDCF2EB5F701E80FF91F20838F817D
:1035E0009885080F191F18870F838985882319F07C
:1035F0000115124048F0CE010E94CC1805C0CE0142
:103600000E94C21880E001C081E0DF91CF911F913C
:103610000F91FF90EF90DF90CF900895EF92FF927F
:103620000F931F930115110519F00E947F1A01C015
:1036300081E01F910F91FF90EF900895EF92FF921C
:103640000F931F93790100E012E020E030E00E9428
:103650007F1A1F910F91FF90EF900895CF93DF9302
:10366000EC016EBD20E030E00DB407FEFDCFFA01A5
:10367000E20FF31F80818EBD0DB407FEFDCF818167
:103680008EBD2E5F3F4F211582E0380769F70DB4DC
:1036900007FEFDCF8FEF0E94B8188FEF0E94B81879
:1036A0000E94BD188A87982F9F71953039F081E16B
:1036B0008D83CE010E94C21880E001C081E0DF91BD
:1036C000CF9108950F931F93CF93DF93EC0189015E
:1036D000411551056105710511F482E132C08B85F8
:1036E000833039F089E0440F551F661F771F8A9594
:1036F000D1F79A01AB0168E1CE010E942A19882313
:1037000011F084E01EC0A8016EEFCE010E942E1BB6
:103710008823C1F068E572E0CE010E940F19811183
:1037200002C085E10EC020E030E0A9016DE0CE01CD
:103730000E942A19811104C00E94BD18882339F003
:1037400084E18D83CE010E94C21880E004C0CE01C6
:103750000E94C21881E0DF91CF911F910F910895CF
:10376000809183078823A9F14091070250910802B4
:103770006091090270910A0226E837E0809184077F
:10378000909185070E94621B811102C080E008951C
:1037900040917F0750918007609181077091820767
:1037A000411551056105710591F026E837E08091DA
:1037B0008407909185070E94621B882339F3109239
:1037C0007F07109280071092810710928207109253
:1037D000830781E00895CF92DF92EF92FF92CF931B
:1037E0006B017C01C42F8091070290910802A09187
:1037F0000902B0910A028C159D05AE05BF05D1F0F6
:103800000E94B01B811102C080E01AC026E837E098
:10381000B701A60180918407909185070E941E1B25
:10382000882391F3C0920702D0920802E092090225
:10383000F0920A0280918307C82BC093830781E02E
:10384000CF91FF90EF90DF90CF900895CF92DF92CD
:10385000EF92FF926B017C010E94B01B8823A9F0BC
:10386000E6E8F7E0119289E0E638F807D9F7C09268
:103870000702D0920802E0920902F0920A028091B7
:10388000830781608093830781E0FF90EF90DF9052
:10389000CF9008958F929F92AF92BF92CF92DF9276
:1038A000EF92FF920F931F93CF93DF93FC018185DB
:1038B0009285A385B4850196A11DB11D8417950736
:1038C000A607B70710F480E05CC083899489A589B6
:1038D000B689C789C03129F4852E962EA72EBB2420
:1038E00009C04A015B01C7E0B694A79497948794F6
:1038F000CA95D1F7E9016A017B018F01BC01CD01B5
:10390000680D791D8A1D9B1D80900702909008020A
:10391000A0900902B0900A02681579058A059B05F6
:1039200099F4F80187898031A9F4B701A6015527D8
:1039300066277727440F551FFA01EA57F84F808111
:103940009181A0E0B0E018C040E00E94EB1B811123
:10395000E8CFB9CFB701A6014F775527662777275C
:10396000440F551F440F551FFA01EA57F84F808145
:103970009181A281B381BF7088839983AA83BB831D
:1039800081E0DF91CF911F910F91FF90EF90DF9039
:10399000CF90BF90AF909F908F9008954F925F927D
:1039A0006F927F92AF92BF92CF92DF92EF92FF928F
:1039B0000F931F93CF93DF9300D01F92CDB7DEB745
:1039C0008C0149835A836B837C835901C12CD12C90
:1039D0007601412C82E0582E612C712C49815A814C
:1039E0006B817C819E012F5F3F4FC8010E944A1C62
:1039F000882351F1D301C201F801058404C0880F66
:103A0000991FAA1FBB1F0A94D2F7C80ED91EEA1E1F
:103A1000FB1E49815A816B817C818789803129F025
:103A200088EF9FEFAFEFBFE004C088EF9FEFA0E00B
:103A3000B0E0481759076A077B0780F2F501C0829A
:103A4000D182E282F38281E00F900F900F900F906D
:103A5000DF91CF911F910F91FF90EF90DF90CF906A
:103A6000BF90AF907F906F905F904F9008954F926E
:103A70005F926F927F928F929F92AF92BF92CF92FE
:103A8000DF92EF92FF920F931F93CF93DF93EC019E
:103A90006A017B0128013901423051056105710538
:103AA00010F480E073C089859A85AB85BC8501964A
:103AB000A11DB11D84179507A607B70790F38B8842
:103AC0009C88AD88BE888F89803129F4BB27AF2DB3
:103AD0009E2D8D2D09C0DB01CA0147E0B695A79543
:103AE000979587954A95D1F7880E991EAA1EBB1EF9
:103AF0008091070290910802A0910902B0910A02F8
:103B000088169906AA06BB0679F48F898031A1F43C
:103B1000DD24EE24FF24C601880F991FFC01EA571B
:103B2000F84F5182408219C040E0C501B4010E94A3
:103B3000EB1B8111EACFB5CFE894C7F8DD24EE2462
:103B4000FF24C601880F991F880F991FFC01EA57AF
:103B5000F84F408251826282738280918307816034
:103B6000809383078A89823080F08D819E81AF8126
:103B7000B885880E991EAA1EBB1E80927F07909260
:103B80008007A0928107B092820781E0DF91CF91F8
:103B90001F910F91FF90EF90DF90CF90BF90AF906B
:103BA0009F908F907F906F905F904F9008952F928D
:103BB0003F924F925F926F927F929F92AF92BF928D
:103BC000CF92DF92EF92FF920F931F93CF93DF93E9
:103BD000CDB7DEB760970FB6F894DEBF0FBECDBF8E
:103BE0005C0149875A876B877C871901D901CD9081
:103BF000DD90ED90FC90C114D104E104F10431F0AA
:103C0000BFEFCB1ADB0AEB0AFB0A10C0FC01C08035
:103C1000D180E280F3809924939409851A852B85BD
:103C20003C85013011052105310509F0912CF50184
:103C300081859285A385B4858C019D010F5F1F4FFF
:103C40002F4F3F4F0D871E872F87388B2601370157
:103C50001D821E821F821886F50181859285A385AB
:103C6000B4850D811E812F813885081719072A0711
:103C70003B0708F056C02D853E854F855889241591
:103C800035054605570550F482E0482E512C612C2D
:103C9000712C92E0C92ED12CE12CF12C9E012F5FCA
:103CA0003F4FB301A201C5010E944A1C8823C9F1FC
:103CB00049815A816B817C81D301C2010196A11D8A
:103CC000B11D452B462B472B19F06C017D010FC010
:103CD000AC01BD014C195D096E097F0909851A8582
:103CE0002B853C85401751076207730779F02D81BA
:103CF0003E814F8158852F5F3F4F4F4F5F4F2D8340
:103D00003E834F8358872C013D01A6CF0FEF1FEF55
:103D10002FEF3FE0B301A201C5010E94371D8111C1
:103D200018C080E041C0D301C2010197A109B109C7
:103D30008D839E83AF83B88793018201AC01BD015F
:103D4000C5010E94371D882361F34D805E806F801E
:103D50007884C414D504E604F70428F3D1014D9106
:103D60005D916D917C91411551056105710599F445
:103D7000F101C082D182E282F3829920A1F0FFEFAB
:103D8000CF1ADF0AEF0AFF0AD501CD92DD92ED923C
:103D9000FC92139708C097018601C5010E94371D48
:103DA0008111E6CFBECF81E060960FB6F894DEBFFA
:103DB0000FBECDBFDF91CF911F910F91FF90EF907C
:103DC000DF90CF90BF90AF909F907F906F905F906B
:103DD0004F903F902F900895AF92BF92CF92DF9275
:103DE000EF92FF920F931F93CF93DF9300D01F9218
:103DF000CDB7DEB75C016A017B0182E090E0A0E014
:103E0000B0E0F50180839183A283B3839E012F5F8D
:103E10003F4FB701A601C5010E944A1C882311F13A
:103E200000E010E09801B701A601C5010E94371D0E
:103E30008823C1F0C980DA80EB80FC80F501878996
:103E4000803129F088EF9FEFAFEFBFE004C088EF2B
:103E50009FEFA0E0B0E0C816D906EA06FB06B0F274
:103E600081E001C080E00F900F900F900F90DF91E4
:103E7000CF911F910F91FF90EF90DF90CF90BF9067
:103E8000AF9008958F929F92AF92BF92CF92DF92A0
:103E9000EF92FF920F931F93CF93DF93EC01142FB8
:103EA0007093850760938407442369F1453010F0CF
:103EB00080E0F2C040E060E070E0CB010E94EB1BCC
:103EC0008823B1F320E1129FA00111244A58584FD2
:103ED000FA01E254FE4F80818F7751F73C96808142
:103EE0009181A281B38184369105A105B10500F3CA
:103EF0003497C080D180E280F380C114D104E10402
:103F0000F10421F4D5CFC12CD12C760140E0C701BA
:103F1000B6010E94EB1B882359F280919107909182
:103F200092078115924021F690919607992309F402
:103F3000BFCF2091940730919507232B09F4B8CF78
:103F400080919307882309F4B3CF9A8B8C831D86C5
:103F500090E061E070E02D85E22FAB01022E02C0FF
:103F6000440F551F0A94E2F78417950731F031E0AA
:103F7000320F3D87283078F39BCF20919C073091FA
:103F80009D072115310519F040E050E008C020914F
:103F9000AA073091AB074091AC075091AD072D8334
:103FA0003E834F83588780919407909195074601EF
:103FB0005701880E991EA11CB11C8B8A9C8AAD8A60
:103FC000BE8A0091970710919807198F088FA091CA
:103FD0009607B0E00E944E2E860E971EA81EB91EB0
:103FE0008A8E9B8EAC8EBD8E85E0000F111F8A9548
:103FF000E1F701501E4F012F11270695800E911EEB
:10400000A11CB11C8E869F86A88AB98A2091990727
:1040100030919A072115310521F0A90160E070E087
:1040200008C04091A6075091A7076091A80770911A
:10403000A907D701C60188199909AA09BB09840FE4
:10404000951FA61FB71F04C0B695A795979587958E
:10405000EA95D2F789879A87AB87BC87853F2FE09F
:104060009207A105B10510F48CE014C0853F9F4F65
:10407000A105B10510F480E10DC08091B2079091C7
:10408000B307A091B407B091B5078A8F9B8FAC8F0F
:10409000BD8F80E28F8B81E0DF91CF911F910F91D7
:1040A000FF90EF90DF90CF90BF90AF909F908F9058
:1040B00008952F923F924F925F926F927F928F92CC
:1040C0009F92AF92BF92CF92DF92EF92FF920F93A7
:1040D0001F93CF93DF9300D0CDB7DEB74C017B8326
:1040E0006A836A01590117019801241B350B37FFB8
:1040F00003C0319521953109C5014A815B81841B3B
:10410000950B97FF03C091958195910951E05983D3
:104110008217930714F019820BC09A2D8B2D58012A
:10412000092F182F9A818B81DB82CA82C92ED82E43
:104130008A819B81A816B9065CF49C2D8D2D68019F
:10414000092F182F9A818B81BB82AA82A92EB82EA3
:104150002501AA81BB814A1A5B0A38016C187D08C7
:1041600077FE03C0719461947108720157FE03C019
:10417000BFEFEB1AFB0AF594E794C016D1061CF0CA
:104180000FEF1FEF1FC001E010E01CC0D401ED9144
:10419000FC91B9810084F185E02D9101BB23C1F030
:1041A0004A815B81B601C4011995E618F708F7FE4C
:1041B00004C0C00ED11EE40CF51CEA81FB813196CF
:1041C000FB83EA834A815B81A416B506FCF604C032
:1041D000A6016A817B81E7CF0F900F900F90DF914E
:1041E000CF911F910F91FF90EF90DF90CF90BF90F4
:1041F000AF909F908F907F906F905F904F903F9087
:104200002F9008950895DC01ED91FC910480F581D3
:10421000E02D19940F931F93DC01ED91FC91008C1C
:10422000F18DE02D19951F910F9108950F931F9314
:10423000DC01ED91FC91028CF38DE02D19951F911D
:104240000F910895EF92FF920F931F93DC01ED9170
:10425000FC91048CF58DE02D19951F910F91FF9025
:10426000EF9008950895AF92BF92CF92DF92EF92B0
:10427000FF920F931F93CF93DF9300D01F92CDB780
:10428000DEB75C016901DC01ED91FC910680F781EC
:10429000E02D4B835C8369837A831995D501ED9179
:1042A000FC914B815C81C40ED51EB1E0CB1AD108C4
:1042B0000088F189E02D7801860169817A819B016E
:1042C000C5011995D501ED91FC910288F389E02D86
:1042D000C5010F900F900F900F90DF91CF911F911C
:1042E0000F91FF90EF90DF90CF90BF90AF90199417
:1042F000AF92BF92CF92DF92EF92FF920F931F93F4
:10430000CF93DF9300D01F92CDB7DEB75C01690178
:10431000DC01ED91FC910680F781E02D4B835C83FD
:1043200069837A831995D501ED91FC9169817A8130
:104330009B012C0D3D1D215031090088F189E02D94
:1043400078014B815C818A01C5011995D501ED91F8
:10435000FC910288F389E02DC5010F900F900F901A
:104360000F90DF91CF911F910F91FF90EF90DF9011
:10437000CF90BF90AF9019944F925F926F927F92BF
:104380008F929F92AF92BF92CF92DF92EF92FF9265
:104390000F931F93CF93DF931F921F92CDB7DEB77A
:1043A0006C015A0139014801DC01ED91FC91068054
:1043B000F781E02D69837A8319956981462E7A8188
:1043C000572E640C751CD601ED91FC9146145704D0
:1043D0006CF40484F585E02D87019401A501B201F8
:1043E000C6011995BFEF4B1A5B0AEDCF0288F3891E
:1043F000E02DC6010F900F90DF91CF911F910F918B
:10440000FF90EF90DF90CF90BF90AF909F908F90F4
:104410007F906F905F904F901994EF92FF920F935F
:104420001F93DC01ED91FC9111971A960D911C914F
:104430001B9718962D913C911997048CF58DE02DC2
:104440007B0140E050E060E070E019951F910F9112
:10445000FF90EF900895CF92DF92EF92FF920F932B
:104460001F93CF93DF9300D000D0CDB7DEB76C01A0
:10447000DC01ED91FC916217730789F404171507AD
:104480002CF4942F852FA801092F182F041B150B2E
:1044900098012F5F3F4F008CF18DE02D12C0401727
:1044A000510709F5261737072CF4962F872FB901E6
:1044B000292F382F261B370B2F5F3F4F028CF38D90
:1044C000E02D8701C601199526960FB6F894DEBF38
:1044D0000FBECDBFDF91CF911F910F91FF90EF9055
:1044E000DF90CF9008950680F781E02D2D833E83E5
:1044F0004B835C8369837A831995D601ED91FC9196
:104500000088F189E02D2D813E814B815C8169819C
:104510007A81C6011995D601ED91FC910288F38943
:10452000E02DC60126960FB6F894DEBF0FBECDBFB4
:10453000DF91CF911F910F91FF90EF90DF90CF907F
:1045400019946F927F928F929F92AF92BF92CF9267
:10455000DF92EF92FF920F931F93CF93DF93EC01C3
:104560004B015A0169013801E881F9810680F78120
:10457000E02D1995E881F9810684F785E02D870102
:104580009601A501B401CE011995E881F981A50133
:10459000460D571D415051090684F785E02D9601BF
:1045A000B401CE011995E881F9810484F585E02DE7
:1045B0009301A501B401CE011995E881F981C80CD8
:1045C000D91CB601615071090484F585E02D930171
:1045D000A501CE011995E881F9810288F389E02DC2
:1045E000CE01DF91CF911F910F91FF90EF90DF905F
:1045F000CF90BF90AF909F908F907F906F901994C5
:104600000895FC016370658B8481958126813781D3
:10461000613039F0633029F09187808733872287B2
:10462000089531872087938782870895FC0113823C
:10463000128287E793E09183808375836483578335
:1046400046837187608753874287158A158614864B
:104650001786168681E0848B2FEF3FEF338B228BFA
:10466000318B208B868B178A118E108E08952F9296
:104670003F924F925F926F927F928F929F92AF92F2
:10468000BF92CF92DF92EF92FF920F931F93CF933F
:10469000DF93CDB7DEB76C970FB6F894DEBF0FBED1
:1046A000CDBF9C8F8B8F5B011A011F830E83370157
:1046B000C982DC0158964D915C915997411551057D
:1046C00009F0E5C018968D919C91199768177907A4
:1046D0000CF0CAC11A968D919C911B972816390629
:1046E0000CF0C2C18C2C912CFB0136E0C39EE00D76
:1046F000F11D1124FB87EA871E161F060CF0B4C1BA
:10470000C40133E0880F991F3A95E1F79D878C87A4
:10471000820D931D181619060CF0A6C157968C91A0
:10472000811103C0203B08F02F5FAB8DBC8DED9154
:10473000FC9111970680F781E02DCD012A8F199504
:104740002A8DB5E02B9F90011124F5013596FF8746
:10475000EE872501BB82AA82A9014A195B09598B00
:10476000488BC10108969B8B8A8BE889F989E40DF7
:10477000F51DE65DFC4F949198873D822C82610186
:10478000A885A0FF13C0AB8DBC8DED91FC91B981C4
:10479000B13031F40084F185E02D2E813F8116C0C7
:1047A0000284F385E02DEE80FF801AC0EE81FF8148
:1047B0006E167F06F1F0AB8DBC8DED91FC91B98149
:1047C000B13051F40084F185E02D9301A601B201CE
:1047D0008B8D9C8D19950DC00284F385E02D73019E
:1047E000840194014C815D816A817B818B8D9C8DDC
:1047F0001995E885E695E8872C813D81280D391DBE
:104800003D832C833FEFC31AD30A4A895B89C416C0
:10481000D50609F0B5CF8A819B81880D991D9B83B0
:104820008A839FEF491A590AAE85BF854A165B06EF
:1048300009F09BCFEE81FF816E167F0609F4F2C06E
:10484000EB8DFC8DA081B181F981F13079F4B50156
:104850006B5F7F4F1C96ED91FC911D97830128E0C3
:1048600030E0A1018B8D9C8D1995DCC06A857B851C
:10487000681979091A96ED91FC911B9773010C85C3
:104880001D859401A1018B8D9C8D1995CBC0FA01DA
:1048900034969491329765917491291BCB01B7E0BE
:1048A0002B9F800D911D1124FA01259134913B8B92
:1048B0002A8BFC01459154915B834A83FC0132961B
:1048C000C490319654915C87329614913196D4906D
:1048D0008981823058F0612E012E000C7708AD2DB1
:1048E0000D2C000CBB0BB987A88704C0198618864D
:1048F000612C712CAB8DBC8DED91FC9111970680D4
:10490000F781E02DCD011995B9818B2E912C689CF2
:10491000C001699C900D789C900D1124FC01EA0D5A
:10492000FB1DF98BE88B1C82712C612CE12F110F80
:10493000FF0B95012E0F3F1F3B872A87AC0CB11C44
:10494000A5014E0F5F1F5F8B4E8BC1018D0D911D19
:10495000D7FC9A95998F888F4C85641608F062C0B1
:10496000862D90E048855985480F591F489D900134
:10497000499D300D589D300D1124D901A20DB31D54
:10498000BF87AE87AA84BB8448885988DC80BA85F3
:10499000DB1AE88DF98DE80FF91FFD8BEC8B8D2D5F
:1049A0008A0D2E893F89A216B306B9F1877061F48A
:1049B0008A819B810196EA89FB89AA81BB81EA0FE2
:1049C000FB1F74909B838A8377FE20C0AB8DBC8DC8
:1049D000ED91FC91B981B13061F40084F185E02D55
:1049E0002E813F814C895D89B5018B8D9C8D1995F8
:1049F0000DC00284F385E02DEE80FF8084019401D8
:104A00004E855F85B2018B8D9C8D1995770C480C76
:104A1000591CEFEFAE1ABE0AC2CF3C813C0D3C835D
:104A200063949ACFAB8DBC8DED91FC911197028868
:104A3000F389E02DCD016C960FB6F894DEBF0FBE62
:104A4000CDBFDF91CF911F910F91FF90EF90DF903D
:104A5000CF90BF90AF909F908F907F906F905F901E
:104A60004F903F902F9019946C960FB6F894DEBF3C
:104A70000FBECDBFDF91CF911F910F91FF90EF90AF
:104A8000DF90CF90BF90AF909F908F907F906F906E
:104A90005F904F903F902F900895AF92BF92CF922A
:104AA000EF92FF920F931F93CF93DF93EC01262F8A
:104AB000888D998D009709F040C06A3059F41D86A1
:104AC0001C862C898E859F8538E0239F800D911D43
:104AD000112441C06D3009F4AAC08E898823C1F029
:104AE0003C898C859D8546E0349F800D911D112465
:104AF00048855985481759075CF41D861C868E85A4
:104B00009F8548E0349F800D911D11249F878E87DB
:104B1000EA88FB88088919894E855F856C857D85C3
:104B2000CC88CE010E9437232C898C859D8536E068
:104B3000239F800D911D112442C06A3079F41D8697
:104B40001C862C89FC013696E4918E859F852E9FCC
:104B5000800D911D11249F878E8769C06D3009F4E7
:104B600066C0FC0134963491631708F460C0319636
:104B7000E491E61708F45BC0FC013296A590B4906E
:104B8000462F50E0431B510937E0349FB001359F59
:104B9000700D1124A60EB71EF50132963491319690
:104BA000E491332311F0E1110DC0F5013496E49145
:104BB0002C898C859D85E29F800D911D11249D87F8
:104BC0008C8735C0F501359644915E89552311F1E6
:104BD0006C89E32FF0E0E40FF11D47FDFA956E9F1D
:104BE000D0016F9FB00D11244C855D854A0F5B1F6E
:104BF000E885F985E417F5076CF41D861C86FC0131
:104C00003696E4918E859F856E9F800D911D1124AF
:104C10009F878E87EA88FB88088919894E855F857A
:104C20006C857D85CC88CE010E943723BECF81E084
:104C300090E0DF91CF911F910F91FF90EF90CF9077
:104C4000BF90AF900895DC019C96ED91FC919D97EB
:104C50009081D1968C91892B80830895EF92FF9259
:104C60000F931F93DC01ED91FC910284F385E02DFD
:104C70007801890121E030E019951F910F91FF9093
:104C8000EF900895EF92FF920F931F93DC01ED9147
:104C9000FC910284F385E02D780101E010E0199584
:104CA0001F910F91FF90EF9008950F931F93CF9353
:104CB000DF9300D000D0CDB7DEB78C01DC01ED91E1
:104CC000FC910680F781E02D2D833E834B835C832E
:104CD00069837A831995D801ED91FC910084F1855F
:104CE000E02D2D813E814B815C8169817A81C801F3
:104CF0001995D801ED91FC910288F389E02DC80146
:104D000026960FB6F894DEBF0FBECDBFDF91CF91D0
:104D10001F910F911994EF92FF920F931F93CF93CE
:104D2000DF9300D000D0CDB7DEB77C01DC01ED9180
:104D3000FC910680F781E02D2D833E834B835C83BD
:104D400069837A831995D701ED91FC910484F585E7
:104D5000E02D2D813E814B815C8169817A81C70183
:104D60001995D701ED91FC910288F389E02DC701D7
:104D700026960FB6F894DEBF0FBECDBFDF91CF9160
:104D80001F910F91FF90EF901994EF92FF920F9364
:104D90001F93CF93DF9300D000D0CDB7DEB77C0157
:104DA000DC01ED91FC910680F781E02D2D833E839F
:104DB0004B835C8369837A831995D701ED91FC91CC
:104DC0000684F785E02D2D813E814B815C816981D0
:104DD0007A81C7011995D701ED91FC910288F38979
:104DE000E02DC70126960FB6F894DEBF0FBECDBFEB
:104DF000DF91CF911F910F91FF90EF901994CF9277
:104E0000DF92EF92FF920F931F93CF93DF9300D027
:104E100000D0CDB7DEB76C01DC01ED91FC910680CE
:104E2000F781E02D2D833E834B835C8369837A83F6
:104E30001995D601ED91FC910284F385E02D2D8129
:104E40003E814B815C8169817A81C6011995D601C9
:104E5000ED91FC910288F389E02DC60126960FB6EC
:104E6000F894DEBF0FBECDBFDF91CF911F910F91A0
:104E7000FF90EF90DF90CF901994CF93DF93EC01E8
:104E800089A187FF09C084E00E94CD2D81E00E94A6
:104E9000BF2D80E00E94C82DECA5FDA5908189A9B9
:104EA000809589238083DF91CF9108954C7F38E0EE
:104EB000439FC0011124269526952695822B687F55
:104EC000962B0895EF92FF920F931F93CF93DF934A
:104ED0001F92CDB7DEB77C01062F142F40E451E0BE
:104EE00060EF70E029830E9416238FE993E0D701D9
:104EF00011969C938E935E960C935E975F961C938F
:104F00005F97298190962C9390978FEF91968C9331
:104F1000919792968C93929793968C939397F7018F
:104F2000128E138E148E158E602F000F770BFB01DF
:104F3000EA57FD4F8491E82FF0E0EE0FFF1FEA5192
:104F4000FD4F859194919D969C938E939C97FB0128
:104F5000E05CFD4FE491D196EC93D197412F110F76
:104F6000550BFA01EA57FD4FE491F0E0EE0FFF1FF9
:104F7000EA51FD4F85919491F70193A782A7FA0119
:104F8000E05CFD4FE491D296EC93D29799961C92F7
:104F90001E929897D0961C92D09795961C921E922E
:104FA00094979E961C929E9797961C921E92969707
:104FB0009F961C920F90DF91CF911F910F91FF90C0
:104FC000EF900895FC0181A187FF05C06EBD0DB46F
:104FD00007FEFDCF089528E030E090E8A4A1B5A138
:104FE00086A5492F462319F04C91842B03C04C9180
:104FF000809584238C93A0A5B1A54C9180A9809520
:1050000084238C93A0A5B1A54C9180A9842B8C936B
:1050100096952150310911F70895CF93DF93EC0154
:10502000EAA5FBA590818AA9809589238083CE017A
:105030000E94E227EAA5FBA590818AA9892B80839B
:10504000DF91CF910895CF93DF93EC014115510586
:105050006105710521F440E052E16AE770E04A8F92
:105060005B8F6C8F7D8F61E08F8D0E94AB0960E05C
:105070008F8D0E94E70961E08E8D0E94AB0961E08F
:105080008E8D0E94E70989A187FD16C061E08AA183
:105090000E94AB0960E08AA10E94E70961E089A152
:1050A0000E94AB0961E089A10E94E7098BA187FDFD
:1050B00003C060E00E94AB0989A187FD0E94A92D71
:1050C00088A187FD21C061E00E94AB0961E088A151
:1050D0000E94E70964E670E080E090E00E94AC087E
:1050E00060E088A10E94E70964E670E080E090E05B
:1050F0000E94AC0861E088A10E94E70968EC70E0BA
:1051000080E090E00E94AC08E881F9810680F78198
:10511000E02DCE0119956FEECE010E940D2863E0BF
:10512000CE010E94E22760E8CE010E94E22762E001
:10513000CE010E94E2276FECCE010E940D2860E0B4
:10514000CE010E94E22761ECCE010E94E22760E3DB
:10515000CE010E94E2276DEECE010E940D2864E68A
:10516000CE010E94E22763E0CE010E94E22762E1C5
:10517000CE010E94E22761E8CE010E94E22768EE9C
:10518000CE010E940D2865E8CE010E94E22760E072
:10519000CE010E94E22768E7CE010E94E2276BEC75
:1051A000CE010E940D2869E3CE010E94E2276CE245
:1051B000CE010E94E22760E0CE010E94E22764E374
:1051C000CE010E94E22762E0CE010E94E22767EF53
:1051D000CE010E940D2860E2CE010E94E2276AEE15
:1051E000CE010E940D2860E0CE010E94E22760E01F
:1051F000CE010E94E22760ECCE010E940D2863E2FE
:10520000CE010E94E22761ECCE010E940D2860E1F0
:10521000CE010E94E22765ECCE010E940D286EE3CC
:10522000CE010E94E22768E2CE010E94E22767ECED
:10523000CE010E940D2866E8CE010E94E22766E3B7
:10524000CE010E940D2868E4CE010E94E22767E3A8
:10525000CE010E940D2889A187FF09C01EBC0DB494
:1052600007FEFDCF1EBC0DB407FEFDCF08C060E0F9
:10527000CE010E94E22760E0CE010E94E2276AE3AD
:10528000CE010E940D2865E5CE010E94E22761EB68
:10529000CE010E940D2860E0CE010E94E22768E165
:1052A000CE010E94E22766EBCE010E940D2868E045
:1052B000CE010E94E22762E8CE010E94E22767E267
:1052C000CE010E94E22762EFCE010E940D2860E02D
:1052D000CE010E94E22766E2CE010E940D2861E025
:1052E000CE010E94E22760EECE010E940D286FE001
:1052F000CE010E94E22761E3CE010E94E2276BE229
:10530000CE010E94E2276CE0CE010E94E2276EE00F
:10531000CE010E94E22768E0CE010E94E2276EE4FF
:10532000CE010E94E22761EFCE010E94E22767E3EF
:10533000CE010E94E22767E0CE010E94E22760E1F1
:10534000CE010E94E22763E0CE010E94E2276EE0D8
:10535000CE010E94E22769E0CE010E94E22760E0D0
:10536000CE010E94E22761EECE010E940D2860E08E
:10537000CE010E94E2276EE0CE010E94E22764E1A6
:10538000CE010E94E22763E0CE010E94E22761E1A4
:10539000CE010E94E22767E0CE010E94E22761E38E
:1053A000CE010E94E22761ECCE010E94E22768E470
:1053B000CE010E94E22768E0CE010E94E2276FE062
:1053C000CE010E94E2276CE0CE010E94E22761E359
:1053D000CE010E94E22766E3CE010E94E2276FE041
:1053E000CE010E94E22761E1CE010E940D2868E70C
:1053F00070E080E090E00E94AC0869E2CE010E947B
:105400000D2868E770E080E090E00E94AC08E88139
:10541000F9810288F389E02DCE01199580EF90E0A3
:105420009987888780E491E09B878A87DF91CF9175
:1054300008951F93CF93DF93EC0163706D8B6230FF
:10544000C1F0633001F1613051F080EF90E0998755
:10545000888780E491E09B878A8718E41DC080E4F8
:1054600091E09987888780EF90E09B878A8718E290
:1054700013C080EF90E09987888780E491E09B8754
:105480008A8718E809C080E491E09987888780EFCF
:1054900090E09B878A8718EEE881F9810680F78182
:1054A000E02DCE01199566E3CE010E940D28612FF3
:1054B000CE010E94E227E881F9810288F389E02D7C
:1054C000CE01DF91CF911F9119940F931F93CF932A
:1054D000DF931F92CDB7DEB78C01DC01ED91FC911B
:1054E0000680F781E02D698319956981611102C0F9
:1054F00060E201C061E2C8010E940D28D801ED916F
:10550000FC910288F389E02DC8010F90DF91CF91C3
:105510001F910F9119948F929F92AF92BF92CF9249
:10552000DF92EF92FF920F931F93CF93DF93EC01E3
:10553000490181E0881A9108860E971EC401A0E0F7
:10554000B0E04B01A12CB12C540199248824882A65
:10555000992AAA2ABB2A680181E0C81AD108C40E78
:10556000D51EC601A0E0B0E06A01E12CF12C760165
:10557000DD24CC24C82AD92AEA2AFB2A6AE2CE01F1
:105580000E940D2829A16B2D77278827992727FFAF
:1055900018C06EBD0DB407FEFDCFC501AA27BB27FD
:1055A0008EBD0DB407FEFDCFBB27AB2D9A2D892DE7
:1055B0008EBD0DB407FEFDCF8EBC0DB407FEFDCF32
:1055C00014C0CE010E94E227B50188279927CE0199
:1055D0000E94E22799278B2D7A2D692DCE010E94FA
:1055E000E227682DCE010E94E2276BE2CE010E94E5
:1055F0000D2829A16F2D77278827992727FF18C005
:105600006EBD0DB407FEFDCFC701AA27BB278EBD17
:105610000DB407FEFDCFBB27AF2D9E2D8D2D8EBD6A
:105620000DB407FEFDCFCEBC0DB407FEFDCF14C0F8
:10563000CE010E94E227B70188279927CE010E9458
:10564000E22799278F2D7E2D6D2DCE010E94E22716
:105650006C2DCE010E94E2276CE2CE01DF91CF914A
:105660001F910F91FF90EF90DF90CF90BF90AF9080
:105670009F908F900C940D28EF92FF921F93CF93E1
:10568000DF931F92CDB7DEB77C01162FDC01ED91C1
:10569000FC910680F781E02D79831995F70181A1AE
:1056A000698187FF09C06EBD0DB407FEFDCF1EBD29
:1056B0000DB407FEFDCF07C0C7010E94E227612F8E
:1056C000C7010E94E227D701ED91FC910288F3897E
:1056D000E02DC7010F90DF91CF911F91FF90EF90C8
:1056E00019941F93CF93DF93262FFC0131A137FF2D
:1056F00009C07EBD0DB407FEFDCF2EBD0DB407FE63
:10570000FDCF0CC0672F122FEC010E94E227612F02
:10571000CE01DF91CF911F910C94E227DF91CF91C1
:105720001F910895EF92FF920F931F93CF93DF93F2
:1057300077FD23C0DC011896ED91FC9119976E1747
:105740007F07DCF457FD19C01A96ED91FC911B9769
:105750004E175F0794F47901EC0101E010E021E0BD
:1057600030E00E948B2AB701CE01DF91CF911F91CB
:105770000F91FF90EF900C94712BDF91CF911F91BF
:105780000F91FF90EF900895EF92FF921F93CF93A8
:10579000DF9300D01F921F92CDB7DEB77C01162F8A
:1057A000FC0181A187FF12C021153105410551057A
:1057B00049F17EBD0DB407FEFDCF1EBD0DB407FE41
:1057C000FDCF2150310941095109EECF2115310595
:1057D00041055105B9F0672FC70129833A834B83EF
:1057E0005C837D830E94E227612FC7010E94E2272C
:1057F00029813A814B815C8121503109410951094C
:105800007D81E4CF0F900F900F900F900F90DF915C
:10581000CF911F91FF90EF9008958F929F92AF923A
:10582000BF92CF92DF92EF92FF920F931F93CF938D
:10583000DF935C01FB01E9014701DC0118962D9122
:105840003C911997621773070CF049C01A968D9115
:105850009C911B97481759070CF041C06B01CC0E67
:10586000DD1ED60111977A01E00EF11EB7016150DD
:105870007109B7FD34C077FD32C0F7FF03C0E60100
:10588000E0E0F0E057FF03C0870140E050E0A217DE
:10589000B3071CF0E901CE1BDF0B681779071CF07A
:1058A0008C01041B150B9E01D8010E94302E6B0148
:1058B0007C01BF01C5010E948B2AA7019601B4019A
:1058C000C501DF91CF911F910F91FF90EF90DF9075
:1058D000CF90BF90AF909F908F900C94C42BDF918E
:1058E000CF911F910F91FF90EF90DF90CF90BF90DD
:1058F000AF909F908F900895CF93DF938230910562
:1059000010F482E090E0E0918809F091890920E0AC
:1059100030E0C0E0D0E0309711F14081518148176C
:105920005907C0F04817590761F482819381209785
:1059300019F09B838A832BC09093890980938809EF
:1059400026C02115310519F04217530718F49A01A2
:10595000BE01DF01EF010280F381E02DDCCF2115D4
:10596000310509F1281B390B2430310590F41296CA
:105970008D919C9113976115710521F0FB01938323
:10598000828304C09093890980938809FD0132962F
:1059900044C0FD01E20FF31F81939193225031091E
:1059A0002D933C933AC02091860930918709232B8F
:1059B00041F420910D0230910E023093870920931B
:1059C000860920910B0230910C022115310541F41A
:1059D0002DB73EB740910F0250911002241B350B9A
:1059E000E0918609F0918709E217F307A0F42E1BD6
:1059F0003F0B2817390778F0AC014E5F5F4F241733
:105A0000350748F04E0F5F1F509387094093860972
:105A10008193919302C0E0E0F0E0CF01DF91CF915C
:105A200008950F931F93CF93DF93009709F48CC0D1
:105A3000FC01329713821282009188091091890922
:105A40000115110581F420813181820F931F20916E
:105A50008609309187092817390779F5F093870966
:105A6000E093860971C0D80140E050E0AE17BF074F
:105A700050F412962D913C911397AD0121153105EB
:105A800009F1D901F3CF9D01DA01338322836081CB
:105A90007181860F971F8217930769F4EC012881A3
:105AA0003981260F371F2E5F3F4F318320838A8134
:105AB0009B8193838283452B29F4F0938909E0939A
:105AC000880942C01396FC93EE931297ED01499119
:105AD00059919E01240F351FE217F30771F480815D
